:100000000C942A000C943F000C943F000C943F0089
:100010000C943F000C943F000C943F000C943F0064
:100020000C943F000C943F000C943F000C943F0054
:100030000C943F000C943F000C943F000C943F0044
:100040000C943F000C943F000C943F000C943F0034
:100050000C943F0011241FBECFE5D8E0DEBFCDBF1A
:1000600011E0A0E6B0E0E4E3FBE302C005900D92EE
:10007000A23AB107D9F70E942A1B0C94981D0C9440
:100080000000EF92FF920F931F937B018C0120E001
:1000900030E040E05FE40E941D0488238CF0C8013A
:1000A000B70120E030E040E05FE40E94B9010E9427
:1000B000DB049B01AC01205030404040504806C05A
:1000C000C801B7010E94DB049B01AC01B901CA0160
:1000D0001F910F91FF90EF900895A0E0B0E0E3E74B
:1000E000F0E00C94611DDC012B01FA019C9192302F
:1000F00008F439C1EB018881823008F433C19430AF
:1001000069F4843009F02FC111969C91119789816F
:10011000981709F428C1AFE7B0E025C1843009F48D
:1001200021C18230A9F4923009F01DC19A01AD01BC
:1001300088E0EA010990AE01E90109929E0181502F
:10014000C1F7E201898111969C918923818308C1BD
:10015000923009F407C112962D903C901397EB0151
:100160008A819B811496AD90BD90CD90DC901797BD
:10017000EC80FD800E811F819101281B390BB90194
:1001800037FF04C066277727621B730B6032710547
:100190000CF061C0121613066CF537014801062EEB
:1001A00004C096948794779467940A94D2F721E0D8
:1001B00030E040E050E004C0220F331F441F551FC1
:1001C0006A95D2F721503040404050402E213F21C7
:1001D00040235123211531054105510521F021E02E
:1001E00030E040E050E079018A01E628F72808294C
:1001F00019293CC0232BD1F1260E371E35014601AB
:10020000062E04C096948794779467940A94D2F744
:1002100021E030E040E050E004C0220F331F441FD3
:10022000551F6A95D2F721503040404050402A2156
:100230003B214C215D21211531054105510521F05E
:1002400021E030E040E050E059016A01A628B728DB
:10025000C828D9280BC0821593052CF01C01AA24AC
:10026000BB24650103C0EE24FF24870111969C91F5
:10027000D20111968C91981709F445C0992339F051
:10028000A80197012A193B094C095D0906C0A6017E
:1002900095012E193F09400B510B57FD08C01182E3
:1002A0003382228224833583468357831DC081E0B5
:1002B00081833382228288279927DC01821B930B5A
:1002C000A40BB50B84839583A683B7830DC0220F3F
:1002D000331F441F551F24833583468357838281F0
:1002E000938101979383828324813581468157814D
:1002F000DA01C9010197A109B1098F5F9F4FAF4F83
:10030000BF4328F30BC0918333822282EA0CFB1C8B
:100310000C1D1D1DE482F5820683178383E0808314
:10032000248135814681578157FF1AC0C901AA2708
:1003300097FDA095BA2F81709070A070B0705695FF
:10034000479537952795822B932BA42BB52B848328
:100350009583A683B7838281938101969383828359
:10036000DF0101C0D201CD01CDB7DEB7E2E10C94CF
:100370007D1DA0E2B0E0EFEBF1E00C946D1D698310
:100380007A838B839C832D833E834F835887E9E058
:10039000EE2EF12CEC0EFD1ECE010196B7010E944F
:1003A000CC068E010F5E1F4FCE010596B8010E944C
:1003B000CC068A8991E089278A8BC701B801AE01F2
:1003C000475E5F4F0E946D000E94F705A096E6E031
:1003D0000C94891DA0E2B0E0E0EFF1E00C946D1DFB
:1003E00069837A838B839C832D833E834F835887D5
:1003F000F9E0EF2EF12CEC0EFD1ECE010196B701B7
:100400000E94CC068E010F5E1F4FCE010596B801EB
:100410000E94CC06C701B801AE01475E5F4F0E9443
:100420006D000E94F705A096E6E00C94891DA0E2FD
:10043000B0E0EDE1F2E00C94611D69837A838B8377
:100440009C832D833E834F835887CE010196BE0146
:10045000675F7F4F0E94CC06CE010596BE016F5E9E
:100460007F4F0E94CC069985923088F0898982302E
:10047000C8F0943019F4823051F404C0843029F467
:10048000923081F48FE790E0C6C0923049F420E0CA
:100490009A858A89981321E02A87CE010996BBC0E4
:1004A000823049F420E09A858A89981321E02A8BCA
:1004B000CE014196B0C02D843E844F8458886D880B
:1004C0007E888F88988CEE24FF248701AA24BB2481
:1004D000650140E050E060E070E0E0E0F0E0C10184
:1004E00081709070892BE9F0E60CF71C081D191D2E
:1004F0009A01AB012A0D3B1D4C1D5D1D80E090E073
:10050000A0E0B0E0E614F7040805190520F481E046
:1005100090E0A0E0B0E0BA01A901480F591F6A1F9E
:100520007B1FAA0CBB1CCC1CDD1C97FE08C081E005
:1005300090E0A0E0B0E0A82AB92ACA2ADB2A3196C6
:10054000E032F10549F0660C771C881C991C569422
:10055000479437942794C3CFFA85EA892B893C893D
:100560008B859C85280F391F2E5F3F4F17C0CA010E
:1005700081709070892B61F016950795F794E79438
:1005800080E090E0A0E0B0E8E82AF92A0A2B1B2BD3
:1005900076956795579547952F5F3F4F77FDE7CF46
:1005A0000CC0440F551F661F771F17FD4160EE0CEE
:1005B000FF1C001F111F21503040403090E05907B0
:1005C00090E0690790E4790760F32B8F3C8FDB01A3
:1005D000CA018F779070A070B07080349105A1052A
:1005E000B10561F447FD0AC0E114F10401051105EC
:1005F00029F0405C5F4F6F4F7F4F40781A8EFE1797
:1006000011F081E08A8F4D8F5E8F6F8F78A383E02A
:10061000898FCE0149960E94F705A096E2E10C94DD
:100620007D1DA8E1B0E0E7E1F3E00C94691D69836A
:100630007A838B839C832D833E834F835887B9E0D5
:10064000EB2EF12CEC0EFD1ECE010196B7010E949F
:10065000CC068E010F5E1F4FCE010596B8010E9499
:10066000CC062985223008F47EC03989323010F456
:10067000B8017CC08A859A8989278A87243011F03D
:10068000223031F4231709F06EC06FE770E06EC0BE
:10069000343039F41D861E861F86188A1C861B86F8
:1006A00004C0323021F484E08987B7015FC02B8514
:1006B0003C858B899C89281B390B3C872B87ED84D3
:1006C000FE840F851889AD88BE88CF88D88CEA143F
:1006D000FB040C051D0540F4EE0CFF1C001F111F50
:1006E000215030403C872B8720E030E040E050E054
:1006F00080E090E0A0E0B0E460E070E0EA14FB0489
:100700000C051D0540F0282B392B4A2B5B2BEA18D2
:10071000FB080C091D09B695A79597958795EE0CD2
:10072000FF1C001F111F6F5F7F4F6F31710531F785
:10073000DA01C9018F779070A070B0708034910594
:10074000A105B10561F427FD0AC0E114F10401051A
:10075000110529F0205C3F4F4F4F5F4F20782D87C8
:100760003E874F87588BBE01675F7F4FCB010E944A
:10077000F7056896EAE00C94851DA8E1B0E0E3EC8B
:10078000F3E00C946D1D69837A838B839C832D83A6
:100790003E834F83588789E0E82EF12CEC0EFD1E36
:1007A000CE010196B7010E94CC068E010F5E1F4F4D
:1007B000CE010596B8010E94CC068985823040F0B2
:1007C0008989823028F0C701B8010E94440701C01E
:1007D00081E06896E6E00C94891DA8E1B0E0E3EFC3
:1007E000F3E00C946D1D69837A838B839C832D8346
:1007F0003E834F83588789E0E82EF12CEC0EFD1ED6
:10080000CE010196B7010E94CC068E010F5E1F4FEC
:10081000CE010596B8010E94CC068985823040F051
:100820008989823028F0C701B8010E94440701C0BD
:100830008FEF6896E6E00C94891DA8E1B0E0E3E252
:10084000F4E00C946D1D69837A838B839C832D83E4
:100850003E834F83588789E0E82EF12CEC0EFD1E75
:10086000CE010196B7010E94CC068E010F5E1F4F8C
:10087000CE010596B8010E94CC068985823040F0F1
:100880008989823028F0C701B8010E94440701C05D
:100890008FEF6896E6E00C94891DA8E1B0E0E3E5EF
:1008A000F4E00C946D1D69837A838B839C832D8384
:1008B0003E834F83588789E0E82EF12CEC0EFD1E15
:1008C000CE010196B7010E94CC068E010F5E1F4F2C
:1008D000CE010596B8010E94CC068985823040F091
:1008E0008989823028F0C701B8010E94440701C0FD
:1008F00081E06896E6E00C94891DA8E0B0E0E3E8AA
:10090000F4E00C946A1D9B01AC0183E08983DA0159
:10091000C9018827B7FD83959927AA27BB27B82E39
:10092000211531054105510519F482E089833AC04A
:100930008823A9F0203080E0380780E0480780E86D
:10094000580729F460E070E080E09FEC30C0EE24AE
:10095000FF248701E21AF30A040B150B02C0790188
:100960008A018EE1C82ED12CDC82CB82ED82FE8200
:100970000F831887C801B7010E94A80501971816B0
:10098000190684F4082E04C0EE0CFF1C001F111F72
:100990000A94D2F7ED82FE820F831887C81AD90A0B
:1009A000DC82CB82BA82CE0101960E94F70528969E
:1009B000E9E00C94861DACE0B0E0E1EEF4E00C94CC
:1009C000711D69837A838B839C83CE010196BE015E
:1009D0006B5F7F4F0E94CC068D81823061F1823047
:1009E00050F1843021F48E81882351F12EC02F8163
:1009F000388537FD20C06E812F3131051CF066230C
:100A0000F9F023C08EE190E0821B930B29853A8593
:100A10004B855C8504C056954795379527958A95F3
:100A2000D2F76623B1F050954095309521953F4F10
:100A30004F4F5F4F0EC020E030E040E050E009C073
:100A40002FEF3FEF4FEF5FE704C020E030E040E0E2
:100A500050E8B901CA012C96E2E00C948D1DA8E083
:100A6000B0E0E5E3F5E00C94691D7B018C016115B4
:100A700071058105910519F482E0898360C083E0E6
:100A800089838EE1C82ED12CDC82CB82ED82FE825E
:100A90000F831887C801B7010E94A805FC01319790
:100AA000F7FF3BC0222733272E1B3F0B570168015E
:100AB000022E04C0D694C794B794A7940A94D2F790
:100AC00040E050E060E070E081E090E0A0E0B0E065
:100AD00004C0880F991FAA1FBB1F2A95D2F7019740
:100AE000A109B1098E219F21A023B1230097A1055F
:100AF000B10521F041E050E060E070E04A295B2957
:100B00006C297D294D835E836F8378878EE190E029
:100B10008E1B9F0B9C838B8312C0309781F00E2E0F
:100B200004C0EE0CFF1C001F111F0A94D2F7ED82C7
:100B3000FE820F831887CE1ADF0ADC82CB821A82EC
:100B4000CE0101960E94F7052896EAE00C94851DD7
:100B5000EF92FF920F931F937B018C0180E0E816C8
:100B600080E0F80681E0080780E0180788F48FEF3E
:100B7000E816F1040105110531F028F088E090E055
:100B8000A0E0B0E017C080E090E0A0E0B0E012C0CC
:100B900080E0E81680E0F80680E0080781E01807AA
:100BA00028F088E190E0A0E0B0E004C080E190E0AF
:100BB000A0E0B0E020E230E040E050E0281B390B3C
:100BC0004A0B5B0B04C016950795F794E7948A953A
:100BD000D2F7F701E957FF4F8081281B31094109FE
:100BE0005109C9011F910F91FF90EF900895DF9275
:100BF000EF92FF920F931F93FC01E480F580068132
:100C00001781D1808081823048F480E090E0A0E1BB
:100C1000B0E0E82AF92A0A2B1B2BA5C0843009F47E
:100C20009FC0823021F4EE24FF24870105C0E11427
:100C3000F1040105110519F4E0E0F0E096C06281CD
:100C400073819FEF623879070CF05BC022E83FEFB9
:100C5000261B370B2A3131052CF020E030E040E034
:100C600050E02AC0B801A701022E04C0769567950E
:100C7000579547950A94D2F781E090E0A0E0B0E064
:100C800004C0880F991FAA1FBB1F2A95D2F701978E
:100C9000A109B1098E219F21A023B1230097A105AD
:100CA000B10521F081E090E0A0E0B0E09A01AB0155
:100CB000282B392B4A2B5B2BDA01C9018F779070D7
:100CC000A070B07080349105A105B10539F427FFFB
:100CD00009C0205C3F4F4F4F5F4F04C0215C3F4F26
:100CE0004F4F5F4FE0E0F0E02030A0E03A07A0E097
:100CF0004A07A0E45A0710F0E1E0F0E079018A0128
:100D000027C06038710564F5FB01E158FF4FD80139
:100D1000C7018F779070A070B07080349105A105E5
:100D2000B10539F4E7FE0DC080E490E0A0E0B0E04A
:100D300004C08FE390E0A0E0B0E0E80EF91E0A1FC7
:100D40001B1F17FF05C016950795F794E79431967A
:100D500087E016950795F794E7948A95D1F705C033
:100D6000EE24FF248701EFEFF0E06E2F67956627F2
:100D70006795902F9F77D794DD24D7948E2F8695F3
:100D8000492F462B582F5D29B701CA011F910F919A
:100D9000FF90EF90DF900895FC01DB0140815181CD
:100DA0002281622F6F7770E0221F2227221F9381FA
:100DB000892F880F822B282F30E0991F9927991FA0
:100DC00011969C93119721153105A9F541155105EF
:100DD0006105710511F482E037C082E89FEF139638
:100DE0009C938E9312979A01AB0167E0220F331FF9
:100DF000441F551F6A95D1F783E08C930DC0220FD5
:100E0000331F441F551F12968D919C911397019784
:100E100013969C938E931297203080E0380780E0E1
:100E2000480780E4580758F314962D933D934D934B
:100E30005C93179708952F3F310579F441155105BB
:100E40006105710519F484E08C93089564FF03C073
:100E500081E08C9312C01C9210C02F573040139623
:100E60003C932E93129783E08C9387E0440F551F99
:100E7000661F771F8A95D1F7706414964D935D9322
:100E80006D937C93179708951F93DC01FB019C9150
:100E9000923008F447C08081823008F443C0943017
:100EA00051F411961C91843099F58181682F70E07E
:100EB000611B71093FC0843021F0923031F48230DF
:100EC000B9F18181882389F12DC011961C91119768
:100ED0008230F1F081811817D9F412962D913C914E
:100EE0001397828193818217930794F0281739070B
:100EF000BCF014968D919D910D90BC91A02D2481F4
:100F0000358146815781281739074A075B0718F44E
:100F1000112341F00AC082179307A407B50740F4D4
:100F2000112319F061E070E005C06FEF7FEF02C0A0
:100F300060E070E0CB011F910895DF93CF93CDB7B0
:100F4000DEB728970FB6F894DEBF0FBECDBF8A83F9
:100F50006B834C8381E089838B81883008F0F3C0F8
:100F60008C81882309F078C08A81282F30E0388767
:100F70002F838F8198858130910561F12F8138858C
:100F8000223031052CF48F819885009769F0DBC001
:100F90002F8138852230310599F18F8198858330F2
:100FA000910509F443C0CFC0AAE3B0E0EAE3F0E062
:100FB0008081482F8B81282F30E081E090E0022E45
:100FC00002C0880F991F0A94E2F7809584238C93BE
:100FD0001982B9C0A7E3B0E0E7E3F0E08081482FD1
:100FE0008B81282F30E081E090E0022E02C0880F34
:100FF000991F0A94E2F7809584238C931982A3C0E9
:10100000A4E3B0E0E4E3F0E08081482F8B81282F57
:1010100030E081E090E0022E02C0880F991F0A9410
:10102000E2F7809584238C9319828DC0A1E3B0E010
:10103000E1E3F0E08081482F8B81282F30E081E0D0
:1010400090E0022E02C0880F991F0A94E2F7809563
:1010500084238C93198277C08C81813009F073C00E
:101060008A81282F30E03E832D838D819E818130BF
:10107000910559F12D813E81223031052CF48D816D
:101080009E81009769F05FC02D813E81223031053D
:1010900089F18D819E818330910509F440C053C050
:1010A000AAE3B0E0EAE3F0E08081482F8B81282FAB
:1010B00030E081E090E0022E02C0880F991F0A9470
:1010C000E2F7842B8C9319823EC0A7E3B0E0E7E3FC
:1010D000F0E08081482F8B81282F30E081E090E084
:1010E000022E02C0880F991F0A94E2F7842B8C937A
:1010F000198229C0A4E3B0E0E4E3F0E08081482F46
:101100008B81282F30E081E090E0022E02C0880F12
:10111000991F0A94E2F7842B8C93198214C0A1E3DF
:10112000B0E0E1E3F0E08081482F8B81282F30E0B0
:1011300081E090E0022E02C0880F991F0A94E2F726
:10114000842B8C931982898128960FB6F894DEBF80
:101150000FBECDBFCF91DF910895DF93CF93CDB771
:10116000DEB728970FB6F894DEBF0FBECDBF8A83D7
:101170006B834C8381E089838B81883008F0F3C0D6
:101180008C81882309F078C08A81282F30E0388745
:101190002F838F8198858130910561F12F8138856A
:1011A000223031052CF48F819885009769F0DBC0DF
:1011B0002F8138852230310599F18F8198858330D0
:1011C000910509F443C0CFC0ABE3B0E0EBE3F0E03E
:1011D0008081482F8B81282F30E081E090E0022E23
:1011E00002C0880F991F0A94E2F7809584238C939C
:1011F0001982B9C0A8E3B0E0E8E3F0E08081482FAD
:101200008B81282F30E081E090E0022E02C0880F11
:10121000991F0A94E2F7809584238C931982A3C0C6
:10122000A5E3B0E0E5E3F0E08081482F8B81282F33
:1012300030E081E090E0022E02C0880F991F0A94EE
:10124000E2F7809584238C9319828DC0A2E3B0E0ED
:10125000E2E3F0E08081482F8B81282F30E081E0AD
:1012600090E0022E02C0880F991F0A94E2F7809541
:1012700084238C93198277C08C81813009F073C0EC
:101280008A81282F30E03E832D838D819E8181309D
:10129000910559F12D813E81223031052CF48D814B
:1012A0009E81009769F05FC02D813E81223031051B
:1012B00089F18D819E818330910509F440C053C02E
:1012C000ABE3B0E0EBE3F0E08081482F8B81282F87
:1012D00030E081E090E0022E02C0880F991F0A944E
:1012E000E2F7842B8C9319823EC0A8E3B0E0E8E3D8
:1012F000F0E08081482F8B81282F30E081E090E062
:10130000022E02C0880F991F0A94E2F7842B8C9357
:10131000198229C0A5E3B0E0E5E3F0E08081482F21
:101320008B81282F30E081E090E0022E02C0880FF0
:10133000991F0A94E2F7842B8C93198214C0A2E3BC
:10134000B0E0E2E3F0E08081482F8B81282F30E08D
:1013500081E090E0022E02C0880F991F0A94E2F704
:10136000842B8C931982898128960FB6F894DEBF5E
:101370000FBECDBFCF91DF910895DF93CF93CDB74F
:10138000DEB727970FB6F894DEBF0FBECDBF8A83B6
:101390006B835D834C8381E089838B81883008F087
:1013A00074C08A81282F30E03F832E834E815F8175
:1013B0004130510561F18E819F818230910534F475
:1013C0002E813F812115310569F05FC04E815F811B
:1013D0004230510589F18E819F818330910509F456
:1013E00040C053C0E9E3F0E08081282F30E08B81DA
:1013F000882F90E0A90102C0559547958A95E2F79C
:10140000CA018170EC81FD81808319823EC0E6E3D0
:10141000F0E08081282F30E08B81882F90E0A901B7
:1014200002C0559547958A95E2F7CA018170EC8113
:10143000FD818083198229C0E3E3F0E08081282FB9
:1014400030E08B81882F90E0A90102C05595479527
:101450008A95E2F7CA018170EC81FD81808319824F
:1014600014C0E0E3F0E08081282F30E08B81882FEA
:1014700090E0A90102C0559547958A95E2F7CA0107
:101480008170EC81FD8180831982898127960FB656
:10149000F894DEBF0FBECDBFCF91DF910895DF93EB
:1014A000CF9300D000D00F92CDB7DEB78A836B8385
:1014B00081E089838B81883008F073C08A81282F6E
:1014C00030E03D832C838C819D818130910559F1E1
:1014D0002C813D81223031052CF48C819D81009737
:1014E00069F05FC02C813D812230310589F18C810A
:1014F0009D818330910509F440C053C0ABE3B0E057
:10150000EBE3F0E08081482F8B81282F30E081E0F1
:1015100090E0022E02C0880F991F0A94E2F78427F8
:101520008C9319823EC0A8E3B0E0E8E3F0E080814C
:10153000482F8B81282F30E081E090E0022E02C0FE
:10154000880F991F0A94E2F784278C93198229C087
:10155000A5E3B0E0E5E3F0E08081482F8B81282F00
:1015600030E081E090E0022E02C0880F991F0A94BB
:10157000E2F784278C93198214C0A2E3B0E0E2E37F
:10158000F0E08081482F8B81282F30E081E090E0CF
:10159000022E02C0880F991F0A94E2F784278C93C9
:1015A000198289810F900F900F900F900F90CF911B
:1015B000DF910895DF93CF93CDB7DEB781E060E090
:1015C00041E00E949D0781E061E041E00E949D07AB
:1015D00081E062E041E00E949D0781E064E041E03B
:1015E0000E949D0780E063E041E00E949D0780E04B
:1015F00062E041E00E949D0781E065E041E00E94D9
:101600009D0781E066E041E00E949D0780E063E085
:1016100040E00E94AD0880E062E040E00E94AD083A
:1016200081E065E040E00E94AD0881E066E040E0D6
:101630000E94AD08CF91DF910895DF93CF93CDB78E
:10164000DEB7EE970FB6F894DEBF0FBECDBF9CAFEE
:101650008BAF1AAE8BAD9CAD009709F425C383E028
:1016600089AF8BAD9CAD2AE030E0B9010E94101D1E
:101670008AAF8BAD9CAD2AE030E0B9010E94101D0D
:10168000CB019CAF8BAF89AD282F30E03EAF2DAFA3
:101690008DAD9EAD8130910509F4D2C02DAD3EAD2A
:1016A000223031052CF48DAD9EAD009771F0F8C25B
:1016B0002DAD3EAD2230310509F47DC18DAD9EAD1D
:1016C0008330910509F432C2EBC28AAD882F90E0D5
:1016D000FC01E956FE4F8081982F917081E060E017
:1016E000492F0E94AD088AAD882F90E0FC01E95691
:1016F000FE4F80818695982F917081E061E0492F9F
:101700000E94AD088AAD882F90E0FC01E956FE4F9B
:10171000808186958695982F917081E062E0492FAF
:101720000E94AD088AAD882F90E0FC01E956FE4F7B
:101730008081869586958695982F917081E064E0EA
:10174000492F0E94AD0880E063E041E00E94AD08AF
:1017500080E090E0A8E4B2E48DAB9EABAFABB8AF55
:101760006DA97EA98FA998AD20E030E04AE755E445
:101770000E941702DC01CB0189AB9AABABABBCABCF
:1017800069A97AA98BA99CA920E030E040E85FE331
:101790000E944D0488232CF481E090E098AB8FA741
:1017A0003FC069A97AA98BA99CA920E03FEF4FE728
:1017B00057E40E94ED0318164CF56DA97EA98FA978
:1017C00098AD20E030E040E251E40E941702DC01D5
:1017D000CB01BC01CD010E944100DC01CB0198ABE3
:1017E0008FA70FC080E991E09EA78DA78DA59EA52C
:1017F0000197F1F79EA78DA78FA598A9019798ABA0
:101800008FA78FA598A9009769F714C069A97AA92D
:101810008BA99CA90E944100DC01CB0198AB8FA74A
:101820008FA598A99CA78BA78BA59CA50197F1F7DD
:101830009CA78BA780E063E040E00E94AD0830C227
:101840008AAD882F90E0FC01E956FE4F8081982FE9
:10185000917081E060E0492F0E94AD088AAD882F29
:1018600090E0FC01E956FE4F80818695982F91709B
:1018700081E061E0492F0E94AD088AAD882F90E099
:10188000FC01E956FE4F808186958695982F9170D0
:1018900081E062E0492F0E94AD088AAD882F90E078
:1018A000FC01E956FE4F8081869586958695982F96
:1018B000917081E064E0492F0E94AD0880E062E011
:1018C00041E00E94AD0880E090E0A0E2B2E48FA386
:1018D00098A7A9A7BAA76FA178A589A59AA520E07E
:1018E00030E04AE755E40E941702DC01CB018BA3EC
:1018F0009CA3ADA3BEA36BA17CA18DA19EA120E062
:1019000030E040E85FE30E944D0488232CF481E03E
:1019100090E09AA389A33FC06BA17CA18DA19EA159
:1019200020E03FEF4FE757E40E94ED0318164CF517
:101930006FA178A589A59AA520E030E040E251E4A6
:101940000E941702DC01CB01BC01CD010E944100C5
:10195000DC01CB019AA389A30FC080E991E098A391
:101960008F8F8F8D98A10197F1F798A38F8F89A101
:101970009AA101979AA389A389A19AA1009769F7CF
:1019800014C06BA17CA18DA19EA10E944100DC012D
:10199000CB019AA389A389A19AA19E8F8D8F8D8D4A
:1019A0009E8D0197F1F79E8F8D8F80E062E040E081
:1019B0000E94AD0875C18AAD882F90E0FC01E95600
:1019C000FE4F8081982F917081E060E0492F0E9446
:1019D000AD088AAD882F90E0FC01E956FE4F80816A
:1019E0008695982F917081E061E0492F0E94AD08A3
:1019F0008AAD882F90E0FC01E956FE4F80818695E4
:101A00008695982F917081E062E0492F0E94AD0881
:101A10008AAD882F90E0FC01E956FE4F80818695C3
:101A200086958695982F917081E064E0492F0E94F9
:101A3000AD0881E065E041E00E94AD0880E090E003
:101A4000A0E2B2E4898F9A8FAB8FBC8F698D7A8DBB
:101A50008B8D9C8D20E030E04AE755E40E94170210
:101A6000DC01CB018D8B9E8BAF8BB88F6D897E890E
:101A70008F89988D20E030E040E85FE30E944D04BC
:101A800088232CF481E090E09C8B8B8B3FC06D8988
:101A90007E898F89988D20E03FEF4FE757E40E94C1
:101AA000ED0318164CF5698D7A8D8B8D9C8D20E099
:101AB00030E040E251E40E941702DC01CB01BC019E
:101AC000CD010E944100DC01CB019C8B8B8B0FC0B0
:101AD00080E991E09A8B898B89899A890197F1F73E
:101AE0009A8B898B8B899C8901979C8B8B8B8B899B
:101AF0009C89009769F714C06D897E898F89988DBC
:101B00000E944100DC01CB019C8B8B8B8B899C89D3
:101B1000988B8F878F8598890197F1F7988B8F879E
:101B200081E065E040E00E94AD08BAC08AAD882F30
:101B300090E0FC01E956FE4F8081982F917081E082
:101B400060E0492F0E94AD088AAD882F90E0FC012B
:101B5000E956FE4F80818695982F917081E061E073
:101B6000492F0E94AD088AAD882F90E0FC01E9560C
:101B7000FE4F808186958695982F917081E062E076
:101B8000492F0E94AD088AAD882F90E0FC01E956EC
:101B9000FE4F8081869586958695982F917081E07D
:101BA00064E0492F0E94AD0881E066E041E00E94B8
:101BB000AD0880E090E0A0E2B2E48B879C87AD871F
:101BC000BE876B857C858D859E8520E030E04AE769
:101BD00055E40E941702DC01CB018F839887A98707
:101BE000BA876F81788589859A8520E030E040E862
:101BF0005FE30E944D0488232CF481E090E09E83F3
:101C00008D833FC06F81788589859A8520E03FEF7D
:101C10004FE757E40E94ED0318164CF56B857C8561
:101C20008D859E8520E030E040E251E40E9417025D
:101C3000DC01CB01BC01CD010E944100DC01CB01E4
:101C40009E838D830FC080E991E09C838B838B8181
:101C50009C810197F1F79C838B838D819E810197F5
:101C60009E838D838D819E81009769F714C06F815B
:101C7000788589859A850E944100DC01CB019E838D
:101C80008D838D819E819A83898389819A81019731
:101C9000F1F79A83898381E066E040E00E94AD0815
:101CA00089AD815089AFDDCCEE960FB6F894DEBFDA
:101CB0000FBECDBFCF91DF9108950F931F93DF9398
:101CC000CF93CDB7DEB7CA55D0400FB6F894DEBF7C
:101CD0000FBECDBF80E063E041E00E949D0780E041
:101CE00062E041E00E949D0781E060E041E00E94E7
:101CF0009D0781E061E041E00E949D0781E062E094
:101D000041E00E949D0781E064E041E00E949D0760
:101D1000FE01E95AFF4F80E090E0A0EAB1E4808341
:101D20009183A283B3838E010D5A1F4FFE01E95A9E
:101D3000FF4F608171818281938120E030E04AE72A
:101D400055E40E941702DC01CB01F80180839183E6
:101D5000A283B383FE01ED5AFF4F608171818281BE
:101D6000938120E030E040E85FE30E944D04882347
:101D700044F4FE01EF5AFF4F81E090E091838083AD
:101D800064C0FE01ED5AFF4F6081718182819381B1
:101D900020E03FEF4FE757E40E94ED0318160CF0E8
:101DA00043C0FE01E95AFF4F6081718182819381B6
:101DB00020E030E040E251E40E941702DC01CB0158
:101DC0008E010F5A1F4FBC01CD010E944100DC0162
:101DD000CB01F801918380831FC0FE01E15BFF4FBF
:101DE00080E991E091838083FE01E15BFF4F808178
:101DF00091810197F1F7FE01E15BFF4F91838083B1
:101E0000DE01AF5ABF4FFE01EF5AFF4F8081918133
:101E1000019711969C938E93FE01EF5AFF4F80819C
:101E200091810097D1F627C08E010F5A1F4FFE01F6
:101E3000ED5AFF4F60817181828193810E94410040
:101E4000DC01CB01F80191838083DE01A35BBF4FEE
:101E5000FE01EF5AFF4F808191818D939C93FE018B
:101E6000E35BFF4F808191810197F1F7FE01E35B16
:101E7000FF4F9183808383E00E94FD11FE01E75BA9
:101E8000FF4F80E090E0A0EAB0E480839183A283DA
:101E9000B3838E010B5B1F4FFE01E75BFF4F608139
:101EA00071818281938120E030E04AE755E40E940D
:101EB0001702DC01CB01F80180839183A283B383F5
:101EC000FE01EB5BFF4F608171818281938120E095
:101ED00030E040E85FE30E944D04882344F4FE01B3
:101EE000ED5BFF4F81E090E09183808364C0FE0151
:101EF000EB5BFF4F608171818281938120E03FEF36
:101F00004FE757E40E94ED0318160CF043C0FE01A2
:101F1000E75BFF4F608171818281938120E030E037
:101F200040E251E40E941702DC01CB018E010D5BFF
:101F30001F4FBC01CD010E944100DC01CB01F80123
:101F4000918380831FC0FE01EF5BFF4F80E991E02A
:101F500091838083FE01EF5BFF4F80819181019728
:101F6000F1F7FE01EF5BFF4F91838083DE01AD5BF4
:101F7000BF4FFE01ED5BFF4F80819181019711966C
:101F80009C938E93FE01ED5BFF4F808191810097C2
:101F9000D1F624C08E010D5B1F4FFE01EB5BFF4F9E
:101FA00060817181828193810E944100DC01CB01BB
:101FB000F80191838083FE01ED5BFF4F8081918169
:101FC000FE01FF9691838083FE01FF9680819181BF
:101FD0000197F1F7FE01FF969183808383E00E94D1
:101FE000FD1180E090E0A8ECB2E48BAF9CAFADAF08
:101FF000BEAF6BAD7CAD8DAD9EAD2BEA3AEA4AEA41
:1020000050E40E941702DC01CB018FAB98AFA9AF5F
:10201000BAAF6FA978AD89AD9AAD20E030E040E865
:102020005FE30E944D0488231CF481E08EAB91C0D5
:102030006FA978AD89AD9AAD20E030E04FE753E469
:102040000E94ED0318160CF07BC06BAD7CAD8DAD1E
:102050009EAD20E030E04AE754E40E941103DC0129
:10206000CB018AAB9BABACABBDAB6AA97BA98CA9FE
:102070009DA920E030E04AE755E40E941702DC0108
:10208000CB018EA79FA7A8ABB9AB6EA57FA588A9EA
:1020900099A920E030E040E85FE30E944D048823E6
:1020A0002CF481E090E09DA78CA73FC06EA57FA592
:1020B00088A999A920E03FEF4FE757E40E94ED037C
:1020C00018164CF56AA97BA98CA99DA920E030E0DF
:1020D00040E251E40E941702DC01CB01BC01CD01BA
:1020E0000E944100DC01CB019DA78CA70FC080E9B5
:1020F00091E09BA78AA78AA59BA50197F1F79BA7CB
:102100008AA78CA59DA501979DA78CA78CA59DA5A9
:10211000009769F724C06EA57FA588A999A90E9498
:102120004100DC01CB019DA78CA78CA59DA599A79B
:1021300088A788A599A50197F1F799A788A70FC047
:102140006FA978AD89AD9AAD0E944100DC01CB0149
:102150008EAB8EA98FA38FA18A95F1F78FA383E011
:102160000E94FD1180E090E0A8E4B3E48BA39CA35F
:10217000ADA3BEA36BA17CA18DA19EA12BEA3AEADF
:102180004AEA50E40E941702DC01CB018F8F98A32A
:10219000A9A3BAA36F8D78A189A19AA120E030E00C
:1021A00040E85FE30E944D0488231CF481E08E8F99
:1021B00091C06F8D78A189A19AA120E030E04FE70E
:1021C00053E40E94ED0318160CF07BC06BA17CA1B8
:1021D0008DA19EA120E030E04AE754E40E94110363
:1021E000DC01CB018A8F9B8FAC8FBD8F6A8D7B8D7D
:1021F0008C8D9D8D20E030E04AE755E40E94170267
:10220000DC01CB018E8B9F8BA88FB98F6E897F8964
:10221000888D998D20E030E040E85FE30E944D0416
:1022200088232CF481E090E09D8B8C8B3FC06E89DD
:102230007F89888D998D20E03FEF4FE757E40E941A
:10224000ED0318164CF56A8D7B8D8C8D9D8D20E0ED
:1022500030E040E251E40E941702DC01CB01BC01F6
:10226000CD010E944100DC01CB019D8B8C8B0FC006
:1022700080E991E09B8B8A8B8A899B890197F1F792
:102280009B8B8A8B8C899D8901979D8B8C8B8C89EC
:102290009D89009769F724C06E897F89888D998D03
:1022A0000E944100DC01CB019D8B8C8B8C899D8928
:1022B000998B888B888999890197F1F7998B888BFD
:1022C0000FC06F8D78A189A19AA10E944100DC0105
:1022D000CB018E8F8E8D8F878F858A95F1F78F87B3
:1022E00082E00E94FD1188E20E94FD118CE00E94B4
:1022F000FD1181E00E94FD1180E090E0A0E8BFE3C5
:102300008B879C87AD87BE876B857C858D859E85F9
:1023100020E030E04AE755E40E941702DC01CB01DF
:102320008F839887A987BA876F81788589859A85F1
:1023300020E030E040E85FE30E944D0488232CF465
:1023400081E090E09E838D833FC06F817885898591
:102350009A8520E03FEF4FE757E40E94ED031816FF
:102360004CF56B857C858D859E8520E030E040E2D4
:1023700051E40E941702DC01CB01BC01CD010E9497
:102380004100DC01CB019E838D830FC080E991E089
:102390009C838B838B819C810197F1F79C838B833A
:1023A0008D819E8101979E838D838D819E81009773
:1023B00069F714C06F81788589859A850E944100EC
:1023C000DC01CB019E838D838D819E819A838983DD
:1023D00089819A810197F1F79A83898386E00E9427
:1023E000FD11C65ADF4F0FB6F894DEBF0FBECDBF4A
:1023F000CF91DF911F910F910895DF93CF93CDB7C8
:10240000DEB7E9970FB6F894DEBF0FBECDBF89AF38
:1024100089AD982F991F9927991F81E064E0492F72
:102420000E94AD0889AD8295869586958370982F18
:10243000917081E062E0492F0E94AD0889AD8295DC
:1024400086958770982F917081E061E0492F0E94F6
:10245000AD0889AD82958F70982F917081E060E012
:10246000492F0E94AD0880E063E040E00E94AD0883
:1024700080E062E041E00E94AD0880E090E0A0E8EA
:10248000BFE38DAB9EABAFABB8AF6DA97EA98FA9F3
:1024900098AD20E030E04AE755E40E941702DC01E5
:1024A000CB0189AB9AABABABBCAB69A97AA98BA9C1
:1024B0009CA920E030E040E85FE30E944D048823BF
:1024C0002CF481E090E098AB8FA73FC069A97AA96E
:1024D0008BA99CA920E03FEF4FE757E40E94ED0352
:1024E00018164CF56DA97EA98FA998AD20E030E0B3
:1024F00040E251E40E941702DC01CB01BC01CD0196
:102500000E944100DC01CB0198AB8FA70FC080E98E
:1025100091E09EA78DA78DA59EA50197F1F79EA797
:102520008DA78FA598A9019798AB8FA78FA598A97C
:10253000009769F714C069A97AA98BA99CA90E9480
:102540004100DC01CB0198AB8FA78FA598A99CA770
:102550008BA78BA59CA50197F1F79CA78BA780E083
:1025600062E040E00E94AD0880E090E0A0E8BFE3B8
:102570008FA398A7A9A7BAA76FA178A589A59AA59F
:1025800020E030E04AE755E40E941702DC01CB016D
:102590008BA39CA3ADA3BEA36BA17CA18DA19EA187
:1025A00020E030E040E85FE30E944D0488232CF4F3
:1025B00081E090E09AA389A33FC06BA17CA18DA18B
:1025C0009EA120E03FEF4FE757E40E94ED0318166D
:1025D0004CF56FA178A589A59AA520E030E040E2EE
:1025E00051E40E941702DC01CB01BC01CD010E9425
:1025F0004100DC01CB019AA389A30FC080E991E0DF
:1026000098A38F8F8F8D98A10197F1F798A38F8F43
:1026100089A19AA101979AA389A389A19AA1009758
:1026200069F714C06BA17CA18DA19EA10E944100FD
:10263000DC01CB019AA389A389A19AA19E8F8D8FDA
:102640008D8D9E8D0197F1F79E8F8D8F89AD86952B
:1026500086958695982F917081E064E0492F0E94BD
:10266000AD0889AD86958695982F917081E062E0DE
:10267000492F0E94AD0889AD8695982F917081E011
:1026800061E0492F0E94AD0889AD982F917081E0DB
:1026900060E0492F0E94AD0880E063E040E00E94C6
:1026A000AD0880E062E041E00E94AD0880E090E08B
:1026B000A0E8BFE3898F9A8FAB8FBC8F698D7A8D2D
:1026C0008B8D9C8D20E030E04AE755E40E94170294
:1026D000DC01CB018D8B9E8BAF8BB88F6D897E8992
:1026E0008F89988D20E030E040E85FE30E944D0440
:1026F00088232CF481E090E09C8B8B8B3FC06D890C
:102700007E898F89988D20E03FEF4FE757E40E9444
:10271000ED0318164CF5698D7A8D8B8D9C8D20E01C
:1027200030E040E251E40E941702DC01CB01BC0121
:10273000CD010E944100DC01CB019C8B8B8B0FC033
:1027400080E991E09A8B898B89899A890197F1F7C1
:102750009A8B898B8B899C8901979C8B8B8B8B891E
:102760009C89009769F714C06D897E898F89988D3F
:102770000E944100DC01CB019C8B8B8B8B899C8957
:10278000988B8F878F8598890197F1F7988B8F8722
:1027900080E062E040E00E94AD0880E090E0A0E8C8
:1027A000BFE38B879C87AD87BE876B857C858D85D6
:1027B0009E8520E030E04AE755E40E941702DC01E4
:1027C000CB018F839887A987BA876F8178858985A0
:1027D0009A8520E030E040E85FE30E944D048823C2
:1027E0002CF481E090E09E838D833FC06F817885DB
:1027F00089859A8520E03FEF4FE757E40E94ED037B
:1028000018164CF56B857C858D859E8520E030E023
:1028100040E251E40E941702DC01CB01BC01CD0172
:102820000E944100DC01CB019E838D830FC080E9B3
:1028300091E09C838B838B819C810197F1F79C8332
:102840008B838D819E8101979E838D838D819E8157
:10285000009769F714C06F81788589859A850E94F1
:102860004100DC01CB019E838D838D819E819A8303
:10287000898389819A810197F1F79A838983E996FF
:102880000FB6F894DEBF0FBECDBFCF91DF91089594
:10289000DF93CF93CDB7DEB7E9970FB6F894DEBFDD
:1028A0000FBECDBF89AF89AD982F991F9927991F6A
:1028B00081E064E0492F0E94AD0889AD829586953C
:1028C00086958370982F917081E062E0492F0E9475
:1028D000AD0889AD829586958770982F917081E0BB
:1028E00061E0492F0E94AD0889AD82958F70982FC5
:1028F000917081E060E0492F0E94AD0880E063E0C4
:1029000041E00E94AD0880E062E041E00E94AD0835
:1029100080E090E0A0E8BFE38DAB9EABAFABB8AF7B
:102920006DA97EA98FA998AD20E030E04AE755E473
:102930000E941702DC01CB0189AB9AABABABBCABFD
:1029400069A97AA98BA99CA920E030E040E85FE35F
:102950000E944D0488232CF481E090E098AB8FA76F
:102960003FC069A97AA98BA99CA920E03FEF4FE756
:1029700057E40E94ED0318164CF56DA97EA98FA9A6
:1029800098AD20E030E040E251E40E941702DC0103
:10299000CB01BC01CD010E944100DC01CB0198AB11
:1029A0008FA70FC080E991E09EA78DA78DA59EA55A
:1029B0000197F1F79EA78DA78FA598A9019798ABCE
:1029C0008FA78FA598A9009769F714C069A97AA95C
:1029D0008BA99CA90E944100DC01CB0198AB8FA779
:1029E0008FA598A99CA78BA78BA59CA50197F1F70C
:1029F0009CA78BA780E062E040E00E94AD0880E0E9
:102A000090E0A0E4B0E48FA398A7A9A7BAA76FA10C
:102A100078A589A59AA520E030E04AE755E40E9410
:102A20001702DC01CB018BA39CA3ADA3BEA36BA1BA
:102A30007CA18DA19EA120E030E040E85FE30E94F0
:102A40004D0488232CF481E090E09AA389A33FC031
:102A50006BA17CA18DA19EA120E03FEF4FE757E441
:102A60000E94ED0318164CF56FA178A589A59AA5CB
:102A700020E030E040E251E40E941702DC01CB018B
:102A8000BC01CD010E944100DC01CB019AA389A3C6
:102A90000FC080E991E098A38F8F8F8D98A1019747
:102AA000F1F798A38F8F89A19AA101979AA389A37F
:102AB00089A19AA1009769F714C06BA17CA18DA18F
:102AC0009EA10E944100DC01CB019AA389A389A1A8
:102AD0009AA19E8F8D8F8D8D9E8D0197F1F79E8F80
:102AE0008D8F89AD869586958695982F917081E01A
:102AF00064E0492F0E94AD0889AD86958695982F90
:102B0000917081E062E0492F0E94AD0889AD869501
:102B1000982F917081E061E0492F0E94AD0889AD46
:102B2000982F917081E060E0492F0E94AD0880E00D
:102B300063E041E00E94AD0880E062E041E00E9475
:102B4000AD0880E090E0A0E8BFE3898F9A8FAB8F5B
:102B5000BC8F698D7A8D8B8D9C8D20E030E04AE7AB
:102B600055E40E941702DC01CB018D8B9E8BAF8B4D
:102B7000B88F6D897E898F89988D20E030E040E89C
:102B80005FE30E944D0488232CF481E090E09C8B4D
:102B90008B8B3FC06D897E898F89988D20E03FEFB8
:102BA0004FE757E40E94ED0318164CF5698D7A8DB6
:102BB0008B8D9C8D20E030E040E251E40E941702B2
:102BC000DC01CB01BC01CD010E944100DC01CB0145
:102BD0009C8B8B8B0FC080E991E09A8B898B8989C4
:102BE0009A890197F1F79A8B898B8B899C89019738
:102BF0009C8B8B8B8B899C89009769F714C06D899E
:102C00007E898F89988D0E944100DC01CB019C8BCD
:102C10008B8B8B899C89988B8F878F85988901975F
:102C2000F1F7988B8F8780E062E040E00E94AD086A
:102C300080E090E0A0E4B0E48B879C87AD87BE87FE
:102C40006B857C858D859E8520E030E04AE755E4E4
:102C50000E941702DC01CB018F839887A987BA876E
:102C60006F81788589859A8520E030E040E85FE3D0
:102C70000E944D0488232CF481E090E09E838D8394
:102C80003FC06F81788589859A8520E03FEF4FE7C7
:102C900057E40E94ED0318164CF56B857C858D85F5
:102CA0009E8520E030E040E251E40E941702DC0102
:102CB000CB01BC01CD010E944100DC01CB019E8310
:102CC0008D830FC080E991E09C838B838B819C81F5
:102CD0000197F1F79C838B838D819E8101979E8361
:102CE0008D838D819E81009769F714C06F817885EF
:102CF00089859A850E944100DC01CB019E838D83EA
:102D00008D819E819A83898389819A810197F1F7C8
:102D10009A838983E9960FB6F894DEBF0FBECDBFC4
:102D2000CF91DF910895DF93CF93CDB7DEB7629750
:102D30000FB6F894DEBF0FBECDBF9A8B898B188A71
:102D40001F8681C02F85388989899A89FC01E20F05
:102D5000F31F80810E94481480E090E0AAE7B3E46A
:102D60008B879C87AD87BE876B857C858D859E858F
:102D700020E030E04AE755E40E941702DC01CB0175
:102D80008F839887A987BA876F81788589859A8587
:102D900020E030E040E85FE30E944D0488232CF4FB
:102DA00081E090E09E838D833FC06F817885898527
:102DB0009A8520E03FEF4FE757E40E94ED03181695
:102DC0004CF56B857C858D859E8520E030E040E26A
:102DD00051E40E941702DC01CB01BC01CD010E942D
:102DE0004100DC01CB019E838D830FC080E991E01F
:102DF0009C838B838B819C810197F1F79C838B83D0
:102E00008D819E8101979E838D838D819E81009708
:102E100069F714C06F81788589859A850E94410081
:102E2000DC01CB019E838D838D819E819A83898372
:102E300089819A810197F1F79A8389838F8598898F
:102E40000196988B8F872F85388989899A89FC010B
:102E5000E20FF31F8081882309F074CF62960FB6CA
:102E6000F894DEBF0FBECDBFCF91DF910895DF9301
:102E7000CF93CDB7DEB7A6970FB6F894DEBF0FBEDF
:102E8000CDBF6BA37CA38DA39EA31A8A198A8BA1A5
:102E90009CA1ADA1BEA10097A105B10521F480E3DD
:102EA0000E944814E0C08BA19CA1ADA1BEA1BB2390
:102EB0000CF044C08BA19CA1ADA1BEA1B095A09582
:102EC000909581959F4FAF4FBF4F8BA39CA3ADA310
:102ED000BEA38DE20E94481431C08BA19CA1ADA17C
:102EE000BEA12AE030E040E050E0BC01CD010E94EC
:102EF000241DDC01CB018A8B8A89805D8A8B8989BC
:102F0000282F30E0CE014396FC01E20FF31F8A899F
:102F1000808389898F5F898B8BA19CA1ADA1BEA184
:102F20002AE030E040E050E0BC01CD010E94241DC9
:102F3000DA01C9018BA39CA3ADA3BEA38BA19CA165
:102F4000ADA1BEA10097A105B10539F68989882FE9
:102F500090E00197988B8F8781C02F853889CE01AB
:102F60004396FC01E20FF31F80810E94481480E029
:102F700090E0AAE7B3E48B879C87AD87BE876B851B
:102F80007C858D859E8520E030E04AE755E40E94EF
:102F90001702DC01CB018F839887A987BA876F81DD
:102FA000788589859A8520E030E040E85FE30E94DB
:102FB0004D0488232CF481E090E09E838D833FC0F4
:102FC0006F81788589859A8520E03FEF4FE757E448
:102FD0000E94ED0318164CF56B857C858D859E85CA
:102FE00020E030E040E251E40E941702DC01CB0116
:102FF000BC01CD010E944100DC01CB019E838D8389
:103000000FC080E991E09C838B838B819C81019729
:10301000F1F79C838B838D819E8101979E838D83A5
:103020008D819E81009769F714C06F8178858985AD
:103030009A850E944100DC01CB019E838D838D81A6
:103040009E819A83898389819A810197F1F79A8376
:1030500089838F8598890197988B8F878F85988929
:1030600099230CF07ACFA6960FB6F894DEBF0FBE68
:10307000CDBFCF91DF910895DF93CF93CDB7DEB76A
:10308000A7970FB6F894DEBF0FBECDBF6CA37DA38C
:103090008EA39FA31B8A1A8A198A6CA17DA18EA177
:1030A0009FA10E944100DC01CB01CC01A0E0B0E077
:1030B000BC01CD010E942F059B01AC016CA17DA13B
:1030C0008EA19FA10E94B901DC01CB01BC01CD0101
:1030D00020E030E040E251E40E941702DC01CB0125
:1030E000BC01CD010E944100DC01CB01898B6CA1A8
:1030F0007DA18EA19FA120E030E040E050E00E9441
:10310000BD03882321F480E30E944814F7C06CA11A
:103110007DA18EA19FA120E030E040E050E00E9420
:103120004D0488230CF046C08CA19DA1AEA1BFA187
:10313000B0588CA39DA3AEA3BFA38DE20E944814F8
:1031400039C06CA17DA18EA19FA10E944100DC012C
:10315000CB012AE030E0B9010E94101D8B8B8B89D6
:10316000805D8B8B8A89282F30E0CE014496FC014C
:10317000E20FF31F8B8980838A898F5F8A8B6CA112
:103180007DA18EA19FA10E944100DC01CB012AE01C
:1031900030E0B9010E94101DCB01CC01A0E0B0E0ED
:1031A000BC01CD010E942F05DC01CB018CA39DA3A6
:1031B000AEA3BFA36CA17DA18EA19FA10E944100DF
:1031C000DC01CB01009709F0BCCF8A89882F90E001
:1031D0000197988B8F8781C02F853889CE014496BF
:1031E000FC01E20FF31F80810E94481480E090E010
:1031F000AAE7B3E48B879C87AD87BE876B857C8508
:103200008D859E8520E030E04AE755E40E94170254
:10321000DC01CB018F839887A987BA876F81788576
:1032200089859A8520E030E040E85FE30E944D0404
:1032300088232CF481E090E09E838D833FC06F81D2
:10324000788589859A8520E03FEF4FE757E40E9413
:10325000ED0318164CF56B857C858D859E8520E0E9
:1032600030E040E251E40E941702DC01CB01BC01D6
:10327000CD010E944100DC01CB019E838D830FC0F4
:1032800080E991E09C838B838B819C810197F1F78E
:103290009C838B838D819E8101979E838D838D81FD
:1032A0009E81009769F714C06F81788589859A851A
:1032B0000E944100DC01CB019E838D838D819E8124
:1032C0009A83898389819A810197F1F79A83898307
:1032D0008F8598890197988B8F878F8598899923F7
:1032E0000CF07ACF8EE20E9448148989882F90E0F2
:1032F000A0E0B0E0BC01CD010E943717A7960FB641
:10330000F894DEBF0FBECDBFCF91DF910895DF935C
:10331000CF9300D00F92CDB7DEB78A836B8319822B
:103320008A81882319F480E889830EC08A818130DC
:1033300019F480EC898308C08A81823019F484E909
:10334000898302C080ED89838B81843120F4898157
:103350009B81890F898389810E94FD110F900F90B5
:103360000F90CF91DF910895DF93CF93CDB7DEB764
:1033700083E067E041E00E949D0783E066E041E072
:103380000E949D0783E065E041E00E949D0783E085
:1033900063E041E00E949D0783E067E041E00E9416
:1033A000AD0883E066E041E00E94AD0883E065E09F
:1033B00041E00E94AD0883E063E041E00E94AD0877
:1033C00082E065E040E00E949D0782E064E040E02A
:1033D0000E949D0782E063E040E00E949D0782E03A
:1033E00062E040E00E949D0782E065E041E00E94CB
:1033F000AD0882E064E041E00E94AD0882E063E055
:1034000041E00E94AD0882E062E041E00E94AD0828
:10341000CF91DF910895DF93CF93CDB7DEB7A39718
:103420000FB6F894DEBF0FBECDBF8BE6898B81E06F
:103430008A8B85E08B8B84E08C8B83E08D8B82E0A4
:103440008E8B82E08F8B82E0888F82E0898F82E092
:103450008A8F87E08B8F86E08C8F85E08D8F83E06D
:103460008E8F83E08F8F83E088A383E089A383E03E
:103470008AA3188ADFC08889282F30E0CE014F96B2
:10348000FC01E20FF31F40818889282F30E0CE0134
:103490004B96FC01E20FF31F9081842F692F40E0CF
:1034A0000E94AD081F86A8C08F85282F30E0CE016E
:1034B0004796FC01E20FF31F40818F85282F30E0F3
:1034C000CE014396FC01E20FF31F90819E012E5E18
:1034D0003F4F842F692FA9010E94BD098A89882343
:1034E00009F087C08F85482F50E08889282F30E069
:1034F000CA01880F991F880F991F820F931FFC0123
:10350000E957FE4F8081898B80E090E0AAEFB3E419
:103510008B879C87AD87BE876B857C858D859E85D7
:1035200020E030E04AE755E40E941702DC01CB01BD
:103530008F839887A987BA876F81788589859A85CF
:1035400020E030E040E85FE30E944D0488232CF443
:1035500081E090E09E838D833FC06F81788589856F
:103560009A8520E03FEF4FE757E40E94ED031816DD
:103570004CF56B857C858D859E8520E030E040E2B2
:1035800051E40E941702DC01CB01BC01CD010E9475
:103590004100DC01CB019E838D830FC080E991E067
:1035A0009C838B838B819C810197F1F79C838B8318
:1035B0008D819E8101979E838D838D819E81009751
:1035C00069F714C06F81788589859A850E944100CA
:1035D000DC01CB019E838D838D819E819A838983BB
:1035E00089819A810197F1F79A83898389898BA3CD
:1035F00027C08F858F5F8F878F85843008F454CFE5
:103600008889282F30E0CE014F96FC01E20FF31F8E
:1036100040818889282F30E0CE014B96FC01E20FD3
:10362000F31F9081842F692F41E00E94AD088889A3
:103630008F5F888B8889843008F41DCF89898BA39C
:103640008BA1A3960FB6F894DEBF0FBECDBFCF916E
:10365000DF910895EF92FF920F931F93DF93CF9323
:10366000CDB7DEB7EE970FB6F894DEBF0FBECDBF75
:103670000E94B4190E945D0E9E012E5E3F4F3EAB2C
:103680002DAB40E650E058AF4FAB5BE059AFEFA930
:10369000F8AD00802FA938AD2F5F3F4F38AF2FAB6B
:1036A000EDA9FEA900822DA93EA92F5F3F4F3EAB99
:1036B0002DAB39AD315039AF49AD442341F7CE017F
:1036C0004D969BAF8AAFEBE6F0E0FDAFECAFF4E1D7
:1036D000FEAFECADFDAD00802CAD3DAD2F5F3F4F9B
:1036E0003DAF2CAFEAADFBAD00822AAD3BAD2F5F05
:1036F0003F4F3BAF2AAF3EAD31503EAF4EAD4423BE
:1037000041F780E065E00E948719CE0142960E9451
:10371000931681E060E00E948719198A188A1F8633
:103720001E861D861C86188619861A861B8685E0CD
:103730008F8380E090E0A0E0B0E08B839C83AD833A
:10374000BE8381E08A830E940B1A898389818B362C
:10375000D1F38981E82FF0E0FCABEBAB2BA93CA9BE
:103760002F32310519F14BA95CA9403351058CF476
:103770008BA99CA98B32910509F441C0EBA9FCA946
:10378000ED32F10571F12BA93CA92A323105D9F0AE
:103790001CC14BA95CA94D33510509F43EC08BA94E
:1037A0009CA98336910509F4FAC00FC188899989CB
:1037B0009F878E878FE20E944814198A188A81E0B9
:1037C0008A831F82C0CF888999899F878E878AE2E2
:1037D0000E944814198A188A81E08A8381E08F83C5
:1037E000B2CF888999899F878E878DE20E9448147D
:1037F000198A188A81E08A8382E08F83A4CF88891E
:1038000099899F878E878BE20E944814198A188AAB
:1038100081E08A8383E08F8396CF82E060E00E941C
:1038200087198F81E82FF0E0FAABE9AB29A93AA913
:103830002130310509F449C049A95AA9423051053E
:103840002CF489A99AA9009771F07DCFE9A9FAA96A
:10385000E230F10509F465C029A93AA92330310500
:1038600009F477C070CF88899989009729F4CE012F
:103870004D960E94931667CF8E859F85CC01A0E060
:10388000B0E0BC01CD010E942F057B018C0188892D
:103890009989CC01A0E0B0E0BC01CD010E942F05C8
:1038A0009B01AC01C801B7010E941103DC01CB01EF
:1038B0008B839C83AD83BE838B819C81AD81BE81D4
:1038C000BC01CD010E943C183ECF2E853F858889E2
:1038D0009989AC01249FC001259F900D349F900DC4
:1038E0001124CC01A0E0B0E0BC01CD010E942F0565
:1038F000DC01CB018B839C83AD83BE836B817C8198
:103900008D819E810E94DB04DC01CB01BC01CD01D5
:103910000E947D04DC01CB01BC01CD010E943C185A
:1039200012CF2E853F8588899989F901E81BF90B0B
:10393000CF01CC01A0E0B0E088879987AA87BB8738
:1039400088859985AA85BB85BC01CD010E94371762
:10395000FACE2E853F8588899989820F931FCC01E5
:10396000A0E0B0E0BC01CD010E942F05DC01CB013D
:103970008B839C83AD83BE836B817C818D819E8193
:103980000E94DB04DC01CB01BC01CD010E947D045F
:10399000DC01CB01BC01CD010E943C18D4CE198AB8
:1039A000188A1F861E8681E08A8381E00E94FD11AD
:1039B00080E065E00E948719CE0142960E9493162E
:1039C00081E060E00E948719BECE8981882F90E057
:1039D0009D878C878A81823070F0888999899C01C3
:1039E000220F331FC901880F991F880F991F820F5B
:1039F000931F998B888B8A818F5F8A832889398965
:103A00008C859D85820F931F998B888B8C859D85D6
:103A1000CC01A0E0B0E0BC01CD010E94371793CEED
:103A2000AA1BBB1B51E107C0AA1FBB1FA617B707E4
:103A300010F0A61BB70B881F991F5A95A9F7809500
:103A40009095BC01CD01089597FB092E05260ED057
:103A500057FD04D014D00AD0001C38F4509540957E
:103A6000309521953F4F4F4F5F4F0895F6F7909552
:103A70008095709561957F4F8F4F9F4F0895A1E27C
:103A80001A2EAA1BBB1BFD010DC0AA1FBB1FEE1FD8
:103A9000FF1FA217B307E407F50720F0A21BB30B23
:103AA000E40BF50B661F771F881F991F1A9469F79F
:103AB00060957095809590959B01AC01BD01CF01FB
:103AC00008952F923F924F925F926F927F928F92C2
:103AD0009F92AF92BF92CF92DF92EF92FF920F939D
:103AE0001F93CF93DF93CDB7DEB7CA1BDB0B0FB6A7
:103AF000F894DEBF0FBECDBF09942A883988488864
:103B00005F846E847D848C849B84AA84B984C884F9
:103B1000DF80EE80FD800C811B81AA81B981CE0FF0
:103B2000D11D0FB6F894DEBF0FBECDBFED010895D5
:043B3000F894FFCF37
:103B340043616C63756C61746F720043616E7420D1
:103B4400646976696465206279205A65726F000041
:103B5400000000000000000001020203030303044C
:103B64000404040404040405050505050505050508
:103B740005050505050505060606060606060606E8
:103B840006060606060606060606060606060606D1
:103B940006060606060606070707070707070707B8
:103BA40007070707070707070707070707070707A1
:103BB4000707070707070707070707070707070791
:103BC4000707070707070707070707070707070781
:103BD4000707070707070708080808080808080868
:103BE4000808080808080808080808080808080851
:103BF4000808080808080808080808080808080841
:103C04000808080808080808080808080808080830
:103C14000808080808080808080808080808080820
:103C24000808080808080808080808080808080810
:103C34000808080808080808080808080808080800
:103C440008080808080808080808080808080808F0
:103C5400080808080808080708092F0405062A01A7
:103C640002032D63003D2B0001020304050607082F
:023C7400090045
:00000001FF
